:100000000A128A11F32F00308A000408840A82073A
:100010000034543469346D3465343A340034443433
:0A0020006134743465343A3400345E
:100BCA00F00070080F39303E0800831203138C1DA1
:100BDA00EF2DF02DEA2D8C110800831603139114C2
:100BEA000A128A11EA250A128A11080083160313C7
:100BFA0011150A128A11EA250A128A1108008316A7
:100C0A000313911611160A128A11EA250A128A1179
:100C1A000800F1007108F00004300310F00CFF3EE8
:100C2A00031D122E7008303E080083160313911517
:100C3A000A128A11EA250A128A1183120313130867
:100C4A000800831603138715071628308312031327
:100C5A00940009308316031393000800F00070080B
:100C6A008312031393000A128A11EA250A128A11BF
:100C7A0083160313111B422E432E3D2E0800F20049
:100C8A0072088312031388000610861006150330B3
:100C9A00F1009730F000F00B502EF10B502E552E2C
:100CAA008312031306110800F40074088312031355
:100CBA0088000614861006150330F3009730F200F8
:100CCA00F20B652EF30B652E6A2E8312031306119F
:100CDA00080038300A128A1144260A128A110C3086
:100CEA000A128A1144260A128A1106300A128A1135
:100CFA0044260A128A1180300A128A1144260A12DC
:100D0A008A110800962E750884000A128A11032097
:100D1A000A128A110A128A1159260A128A110130F4
:100D2A00F507750884000A128A1103200A128A112B
:100D3A00003A031DA12EA22E882E0800F1000A12E5
:100D4A008A11F2250A128A11D030831203139300F2
:100D5A000A128A11EA250A128A1183160313111B31
:100D6A00B72EB82EA42E71080A128A1133260A1237
:100D7A008A110A128A11F2250A128A11D1300A122C
:100D8A008A1133260A128A110A128A111A260A129B
:100D9A008A11F2000A128A1104260A128A110A1208
:100DAA008A11FB250A128A11720808008316031396
:100DBA0088010610861006110A128A116E260A1276
:100DCA008A110130F5000A128A1187260A128A113D
:100DDA00C0300A128A1144260A128A110730F50015
:100DEA000A128A1187260A128A110A128A112626DB
:100DFA000A128A1100300A128A11A3260A128A11CB
:100E0A00FD007F30FD0501300A128A11A3260A125D
:100E1A008A11FC0002300A128A11A3260A128A11C8
:100E2A00FB0003300A128A11A3260A128A118312BE
:100E3A000313A10004300A128A11A3260A128A1186
:100E4A00FA0005300A128A11A3260A128A11F90039
:100E5A0006300A128A11A3260A128A118312031370
:100E6A00A00085300A128A1144260A128A117B08C8
:100E7A000A128A110E260A128A110A128A11592690
:100E8A000A128A117B080A128A11E5250A128A11A6
:100E9A000A128A1159260A128A113A300A128A113A
:100EAA0059260A128A117C080A128A110E260A1277
:100EBA008A110A128A1159260A128A117C080A1200
:100ECA008A11E5250A128A110A128A1159260A126A
:100EDA008A113A300A128A1159260A128A117D0891
:100EEA000A128A110E260A128A110A128A11592620
:100EFA000A128A117D080A128A11E5250A128A1134
:100F0A000A128A1159260A128A11C5300A128A113E
:100F1A0044260A128A117A080A128A110E260A121D
:100F2A008A110A128A1159260A128A117A080A1291
:100F3A008A11E5250A128A110A128A1159260A12F9
:100F4A008A112F300A128A1159260A128A1179082F
:100F5A000A128A110E260A128A110A128A115926AF
:100F6A000A128A1179080A128A11E5250A128A11C7
:100F7A000A128A1159260A128A112F300A128A1164
:100F8A0059260A128A118312031320080A128A1197
:100F9A000E260A128A110A128A1159260A128A116F
:100FAA008312031320080A128A11E5250A128A11EC
:100FBA000A128A1159260A128A110330F8008A3055
:100FCA00F7005530F600F60BE82FF70BE82FF80B71
:100FDA00E82FEF2FFF2E0A128A110028F901FA01D1
:100FEA00FB01FC01FD0183120313A001A10183018E
:060FFA000A128A11DB2E31
:02400E003A3F37
:00000001FF
